{
  "_format": "hh-sol-artifact-1",
  "contractName": "AFNFT",
  "sourceName": "contracts/AFNFT.sol",
  "abi": [
    {
      "inputs": [],
      "stateMutability": "nonpayable",
      "type": "constructor"
    },
    {
      "anonymous": false,
      "inputs": [
        {
          "indexed": true,
          "internalType": "address",
          "name": "owner",
          "type": "address"
        },
        {
          "indexed": true,
          "internalType": "address",
          "name": "approved",
          "type": "address"
        },
        {
          "indexed": true,
          "internalType": "uint256",
          "name": "tokenId",
          "type": "uint256"
        }
      ],
      "name": "Approval",
      "type": "event"
    },
    {
      "anonymous": false,
      "inputs": [
        {
          "indexed": true,
          "internalType": "address",
          "name": "owner",
          "type": "address"
        },
        {
          "indexed": true,
          "internalType": "address",
          "name": "operator",
          "type": "address"
        },
        {
          "indexed": false,
          "internalType": "bool",
          "name": "approved",
          "type": "bool"
        }
      ],
      "name": "ApprovalForAll",
      "type": "event"
    },
    {
      "anonymous": false,
      "inputs": [
        {
          "indexed": true,
          "internalType": "address",
          "name": "previousOwner",
          "type": "address"
        },
        {
          "indexed": true,
          "internalType": "address",
          "name": "newOwner",
          "type": "address"
        }
      ],
      "name": "OwnershipTransferred",
      "type": "event"
    },
    {
      "anonymous": false,
      "inputs": [
        {
          "indexed": true,
          "internalType": "bytes32",
          "name": "role",
          "type": "bytes32"
        },
        {
          "indexed": true,
          "internalType": "bytes32",
          "name": "previousAdminRole",
          "type": "bytes32"
        },
        {
          "indexed": true,
          "internalType": "bytes32",
          "name": "newAdminRole",
          "type": "bytes32"
        }
      ],
      "name": "RoleAdminChanged",
      "type": "event"
    },
    {
      "anonymous": false,
      "inputs": [
        {
          "indexed": true,
          "internalType": "bytes32",
          "name": "role",
          "type": "bytes32"
        },
        {
          "indexed": true,
          "internalType": "address",
          "name": "account",
          "type": "address"
        },
        {
          "indexed": true,
          "internalType": "address",
          "name": "sender",
          "type": "address"
        }
      ],
      "name": "RoleGranted",
      "type": "event"
    },
    {
      "anonymous": false,
      "inputs": [
        {
          "indexed": true,
          "internalType": "bytes32",
          "name": "role",
          "type": "bytes32"
        },
        {
          "indexed": true,
          "internalType": "address",
          "name": "account",
          "type": "address"
        },
        {
          "indexed": true,
          "internalType": "address",
          "name": "sender",
          "type": "address"
        }
      ],
      "name": "RoleRevoked",
      "type": "event"
    },
    {
      "anonymous": false,
      "inputs": [
        {
          "indexed": true,
          "internalType": "address",
          "name": "from",
          "type": "address"
        },
        {
          "indexed": true,
          "internalType": "address",
          "name": "to",
          "type": "address"
        },
        {
          "indexed": true,
          "internalType": "uint256",
          "name": "tokenId",
          "type": "uint256"
        }
      ],
      "name": "Transfer",
      "type": "event"
    },
    {
      "inputs": [],
      "name": "DEFAULT_ADMIN_ROLE",
      "outputs": [
        {
          "internalType": "bytes32",
          "name": "",
          "type": "bytes32"
        }
      ],
      "stateMutability": "view",
      "type": "function"
    },
    {
      "inputs": [],
      "name": "MINTER_ROLE",
      "outputs": [
        {
          "internalType": "bytes32",
          "name": "",
          "type": "bytes32"
        }
      ],
      "stateMutability": "view",
      "type": "function"
    },
    {
      "inputs": [
        {
          "internalType": "address",
          "name": "_address",
          "type": "address"
        }
      ],
      "name": "addMinter",
      "outputs": [],
      "stateMutability": "nonpayable",
      "type": "function"
    },
    {
      "inputs": [
        {
          "internalType": "address",
          "name": "to",
          "type": "address"
        },
        {
          "internalType": "uint256",
          "name": "tokenId",
          "type": "uint256"
        }
      ],
      "name": "approve",
      "outputs": [],
      "stateMutability": "nonpayable",
      "type": "function"
    },
    {
      "inputs": [
        {
          "internalType": "address",
          "name": "owner",
          "type": "address"
        }
      ],
      "name": "balanceOf",
      "outputs": [
        {
          "internalType": "uint256",
          "name": "",
          "type": "uint256"
        }
      ],
      "stateMutability": "view",
      "type": "function"
    },
    {
      "inputs": [
        {
          "internalType": "address",
          "name": "_address",
          "type": "address"
        }
      ],
      "name": "canMint",
      "outputs": [
        {
          "internalType": "bool",
          "name": "",
          "type": "bool"
        }
      ],
      "stateMutability": "view",
      "type": "function"
    },
    {
      "inputs": [
        {
          "internalType": "uint256",
          "name": "tokenId",
          "type": "uint256"
        }
      ],
      "name": "getApproved",
      "outputs": [
        {
          "internalType": "address",
          "name": "",
          "type": "address"
        }
      ],
      "stateMutability": "view",
      "type": "function"
    },
    {
      "inputs": [
        {
          "internalType": "bytes32",
          "name": "role",
          "type": "bytes32"
        }
      ],
      "name": "getRoleAdmin",
      "outputs": [
        {
          "internalType": "bytes32",
          "name": "",
          "type": "bytes32"
        }
      ],
      "stateMutability": "view",
      "type": "function"
    },
    {
      "inputs": [
        {
          "internalType": "bytes32",
          "name": "role",
          "type": "bytes32"
        },
        {
          "internalType": "address",
          "name": "account",
          "type": "address"
        }
      ],
      "name": "grantRole",
      "outputs": [],
      "stateMutability": "nonpayable",
      "type": "function"
    },
    {
      "inputs": [
        {
          "internalType": "bytes32",
          "name": "role",
          "type": "bytes32"
        },
        {
          "internalType": "address",
          "name": "account",
          "type": "address"
        }
      ],
      "name": "hasRole",
      "outputs": [
        {
          "internalType": "bool",
          "name": "",
          "type": "bool"
        }
      ],
      "stateMutability": "view",
      "type": "function"
    },
    {
      "inputs": [
        {
          "internalType": "address",
          "name": "owner",
          "type": "address"
        },
        {
          "internalType": "address",
          "name": "operator",
          "type": "address"
        }
      ],
      "name": "isApprovedForAll",
      "outputs": [
        {
          "internalType": "bool",
          "name": "",
          "type": "bool"
        }
      ],
      "stateMutability": "view",
      "type": "function"
    },
    {
      "inputs": [],
      "name": "isOpenMint",
      "outputs": [
        {
          "internalType": "bool",
          "name": "",
          "type": "bool"
        }
      ],
      "stateMutability": "view",
      "type": "function"
    },
    {
      "inputs": [
        {
          "internalType": "address",
          "name": "recipient",
          "type": "address"
        },
        {
          "internalType": "string",
          "name": "tokenURI",
          "type": "string"
        }
      ],
      "name": "mintNFT",
      "outputs": [
        {
          "internalType": "uint256",
          "name": "",
          "type": "uint256"
        }
      ],
      "stateMutability": "nonpayable",
      "type": "function"
    },
    {
      "inputs": [],
      "name": "name",
      "outputs": [
        {
          "internalType": "string",
          "name": "",
          "type": "string"
        }
      ],
      "stateMutability": "view",
      "type": "function"
    },
    {
      "inputs": [],
      "name": "owner",
      "outputs": [
        {
          "internalType": "address",
          "name": "",
          "type": "address"
        }
      ],
      "stateMutability": "view",
      "type": "function"
    },
    {
      "inputs": [
        {
          "internalType": "uint256",
          "name": "tokenId",
          "type": "uint256"
        }
      ],
      "name": "ownerOf",
      "outputs": [
        {
          "internalType": "address",
          "name": "",
          "type": "address"
        }
      ],
      "stateMutability": "view",
      "type": "function"
    },
    {
      "inputs": [],
      "name": "renounceOwnership",
      "outputs": [],
      "stateMutability": "nonpayable",
      "type": "function"
    },
    {
      "inputs": [
        {
          "internalType": "bytes32",
          "name": "role",
          "type": "bytes32"
        },
        {
          "internalType": "address",
          "name": "account",
          "type": "address"
        }
      ],
      "name": "renounceRole",
      "outputs": [],
      "stateMutability": "nonpayable",
      "type": "function"
    },
    {
      "inputs": [
        {
          "internalType": "bytes32",
          "name": "role",
          "type": "bytes32"
        },
        {
          "internalType": "address",
          "name": "account",
          "type": "address"
        }
      ],
      "name": "revokeRole",
      "outputs": [],
      "stateMutability": "nonpayable",
      "type": "function"
    },
    {
      "inputs": [
        {
          "internalType": "address",
          "name": "from",
          "type": "address"
        },
        {
          "internalType": "address",
          "name": "to",
          "type": "address"
        },
        {
          "internalType": "uint256",
          "name": "tokenId",
          "type": "uint256"
        }
      ],
      "name": "safeTransferFrom",
      "outputs": [],
      "stateMutability": "nonpayable",
      "type": "function"
    },
    {
      "inputs": [
        {
          "internalType": "address",
          "name": "from",
          "type": "address"
        },
        {
          "internalType": "address",
          "name": "to",
          "type": "address"
        },
        {
          "internalType": "uint256",
          "name": "tokenId",
          "type": "uint256"
        },
        {
          "internalType": "bytes",
          "name": "_data",
          "type": "bytes"
        }
      ],
      "name": "safeTransferFrom",
      "outputs": [],
      "stateMutability": "nonpayable",
      "type": "function"
    },
    {
      "inputs": [
        {
          "internalType": "address",
          "name": "operator",
          "type": "address"
        },
        {
          "internalType": "bool",
          "name": "approved",
          "type": "bool"
        }
      ],
      "name": "setApprovalForAll",
      "outputs": [],
      "stateMutability": "nonpayable",
      "type": "function"
    },
    {
      "inputs": [
        {
          "internalType": "bool",
          "name": "_isOpen",
          "type": "bool"
        }
      ],
      "name": "setIsOpenMint",
      "outputs": [],
      "stateMutability": "nonpayable",
      "type": "function"
    },
    {
      "inputs": [
        {
          "internalType": "bytes4",
          "name": "interfaceId",
          "type": "bytes4"
        }
      ],
      "name": "supportsInterface",
      "outputs": [
        {
          "internalType": "bool",
          "name": "",
          "type": "bool"
        }
      ],
      "stateMutability": "view",
      "type": "function"
    },
    {
      "inputs": [],
      "name": "symbol",
      "outputs": [
        {
          "internalType": "string",
          "name": "",
          "type": "string"
        }
      ],
      "stateMutability": "view",
      "type": "function"
    },
    {
      "inputs": [
        {
          "internalType": "uint256",
          "name": "tokenId",
          "type": "uint256"
        }
      ],
      "name": "tokenURI",
      "outputs": [
        {
          "internalType": "string",
          "name": "",
          "type": "string"
        }
      ],
      "stateMutability": "view",
      "type": "function"
    },
    {
      "inputs": [
        {
          "internalType": "address",
          "name": "from",
          "type": "address"
        },
        {
          "internalType": "address",
          "name": "to",
          "type": "address"
        },
        {
          "internalType": "uint256",
          "name": "tokenId",
          "type": "uint256"
        }
      ],
      "name": "transferFrom",
      "outputs": [],
      "stateMutability": "nonpayable",
      "type": "function"
    },
    {
      "inputs": [
        {
          "internalType": "address",
          "name": "newOwner",
          "type": "address"
        }
      ],
      "name": "transferOwnership",
      "outputs": [],
      "stateMutability": "nonpayable",
      "type": "function"
    }
  ],
  "bytecode": "0x60806040523480156200001157600080fd5b506040518060400160405280601781526020017f416363656c6572657261746520466c6f776572204e46540000000000000000008152506040518060400160405280600581526020017f41464e465400000000000000000000000000000000000000000000000000000081525081600090805190602001906200009692919062000350565b508060019080519060200190620000af92919062000350565b505050620000d2620000c66200012560201b60201c565b6200012d60201b60201c565b620001047f9f2df0fed2c77648de5860a4cc508cd0818c85b8b8a1ab4ceeef8d981c8956a633620001f360201b60201c565b6000600a60006101000a81548160ff02191690831515021790555062000465565b600033905090565b6000600860009054906101000a900473ffffffffffffffffffffffffffffffffffffffff16905081600860006101000a81548173ffffffffffffffffffffffffffffffffffffffff021916908373ffffffffffffffffffffffffffffffffffffffff1602179055508173ffffffffffffffffffffffffffffffffffffffff168173ffffffffffffffffffffffffffffffffffffffff167f8be0079c531659141344cd1fd0a4f28419497f9722a3daafe3b4186f6b6457e060405160405180910390a35050565b620002058282620002e560201b60201c565b620002e15760016007600084815260200190815260200160002060000160008373ffffffffffffffffffffffffffffffffffffffff1673ffffffffffffffffffffffffffffffffffffffff16815260200190815260200160002060006101000a81548160ff021916908315150217905550620002866200012560201b60201c565b73ffffffffffffffffffffffffffffffffffffffff168173ffffffffffffffffffffffffffffffffffffffff16837f2f8788117e7eff1d82e926ec794901d17c78024a50270940304540a733656f0d60405160405180910390a45b5050565b60006007600084815260200190815260200160002060000160008373ffffffffffffffffffffffffffffffffffffffff1673ffffffffffffffffffffffffffffffffffffffff16815260200190815260200160002060009054906101000a900460ff16905092915050565b8280546200035e9062000400565b90600052602060002090601f016020900481019282620003825760008555620003ce565b82601f106200039d57805160ff1916838001178555620003ce565b82800160010185558215620003ce579182015b82811115620003cd578251825591602001919060010190620003b0565b5b509050620003dd9190620003e1565b5090565b5b80821115620003fc576000816000905550600101620003e2565b5090565b600060028204905060018216806200041957607f821691505b6020821081141562000430576200042f62000436565b5b50919050565b7f4e487b7100000000000000000000000000000000000000000000000000000000600052602260045260246000fd5b613eda80620004756000396000f3fe608060405234801561001057600080fd5b50600436106101c45760003560e01c806395d89b41116100f9578063c87b56dd11610097578063d547741f11610071578063d547741f14610503578063e985e9c51461051f578063eacabe141461054f578063f2fde38b1461057f576101c4565b8063c87b56dd14610497578063d0677c54146104c7578063d5391393146104e5576101c4565b8063a22cb465116100d3578063a22cb46514610413578063abff651f1461042f578063b88d4fde1461044b578063c2ba474414610467576101c4565b806395d89b41146103bb578063983b2d56146103d9578063a217fddf146103f5576101c4565b806336568abe1161016657806370a082311161014057806370a0823114610333578063715018a6146103635780638da5cb5b1461036d57806391d148541461038b576101c4565b806336568abe146102cb57806342842e0e146102e75780636352211e14610303576101c4565b8063095ea7b3116101a2578063095ea7b31461024757806323b872dd14610263578063248a9ca31461027f5780632f2ff15d146102af576101c4565b806301ffc9a7146101c957806306fdde03146101f9578063081812fc14610217575b600080fd5b6101e360048036038101906101de9190612b7e565b61059b565b6040516101f091906130c2565b60405180910390f35b6102016105ad565b60405161020e91906130f8565b60405180910390f35b610231600480360381019061022c9190612bd0565b61063f565b60405161023e919061305b565b60405180910390f35b610261600480360381019061025c9190612ab4565b6106c4565b005b61027d6004803603810190610278919061295a565b6107dc565b005b61029960048036038101906102949190612b19565b61083c565b6040516102a691906130dd565b60405180910390f35b6102c960048036038101906102c49190612b42565b61085c565b005b6102e560048036038101906102e09190612b42565b610885565b005b61030160048036038101906102fc919061295a565b610908565b005b61031d60048036038101906103189190612bd0565b610928565b60405161032a919061305b565b60405180910390f35b61034d600480360381019061034891906128f5565b6109da565b60405161035a91906133ba565b60405180910390f35b61036b610a92565b005b610375610b1a565b604051610382919061305b565b60405180910390f35b6103a560048036038101906103a09190612b42565b610b44565b6040516103b291906130c2565b60405180910390f35b6103c3610baf565b6040516103d091906130f8565b60405180910390f35b6103f360048036038101906103ee91906128f5565b610c41565b005b6103fd610cea565b60405161040a91906130dd565b60405180910390f35b61042d60048036038101906104289190612a24565b610cf1565b005b61044960048036038101906104449190612af0565b610d07565b005b610465600480360381019061046091906129a9565b610da0565b005b610481600480360381019061047c91906128f5565b610e02565b60405161048e91906130c2565b60405180910390f35b6104b160048036038101906104ac9190612bd0565b610e4c565b6040516104be91906130f8565b60405180910390f35b6104cf610f9e565b6040516104dc91906130c2565b60405180910390f35b6104ed610fb1565b6040516104fa91906130dd565b60405180910390f35b61051d60048036038101906105189190612b42565b610fd5565b005b6105396004803603810190610534919061291e565b610ffe565b60405161054691906130c2565b60405180910390f35b61056960048036038101906105649190612a60565b611092565b60405161057691906133ba565b60405180910390f35b610599600480360381019061059491906128f5565b61114a565b005b60006105a682611242565b9050919050565b6060600080546105bc9061369e565b80601f01602080910402602001604051908101604052809291908181526020018280546105e89061369e565b80156106355780601f1061060a57610100808354040283529160200191610635565b820191906000526020600020905b81548152906001019060200180831161061857829003601f168201915b5050505050905090565b600061064a826112bc565b610689576040517f08c379a0000000000000000000000000000000000000000000000000000000008152600401610680906132fa565b60405180910390fd5b6004600083815260200190815260200160002060009054906101000a900473ffffffffffffffffffffffffffffffffffffffff169050919050565b60006106cf82610928565b90508073ffffffffffffffffffffffffffffffffffffffff168373ffffffffffffffffffffffffffffffffffffffff161415610740576040517f08c379a00000000000000000000000000000000000000000000000000000000081526004016107379061335a565b60405180910390fd5b8073ffffffffffffffffffffffffffffffffffffffff1661075f611328565b73ffffffffffffffffffffffffffffffffffffffff16148061078e575061078d81610788611328565b610ffe565b5b6107cd576040517f08c379a00000000000000000000000000000000000000000000000000000000081526004016107c49061323a565b60405180910390fd5b6107d78383611330565b505050565b6107ed6107e7611328565b826113e9565b61082c576040517f08c379a00000000000000000000000000000000000000000000000000000000081526004016108239061337a565b60405180910390fd5b6108378383836114c7565b505050565b600060076000838152602001908152602001600020600101549050919050565b6108658261083c565b61087681610871611328565b61172e565b61088083836117cb565b505050565b61088d611328565b73ffffffffffffffffffffffffffffffffffffffff168173ffffffffffffffffffffffffffffffffffffffff16146108fa576040517f08c379a00000000000000000000000000000000000000000000000000000000081526004016108f19061339a565b60405180910390fd5b61090482826118ac565b5050565b61092383838360405180602001604052806000815250610da0565b505050565b6000806002600084815260200190815260200160002060009054906101000a900473ffffffffffffffffffffffffffffffffffffffff169050600073ffffffffffffffffffffffffffffffffffffffff168173ffffffffffffffffffffffffffffffffffffffff1614156109d1576040517f08c379a00000000000000000000000000000000000000000000000000000000081526004016109c89061327a565b60405180910390fd5b80915050919050565b60008073ffffffffffffffffffffffffffffffffffffffff168273ffffffffffffffffffffffffffffffffffffffff161415610a4b576040517f08c379a0000000000000000000000000000000000000000000000000000000008152600401610a429061325a565b60405180910390fd5b600360008373ffffffffffffffffffffffffffffffffffffffff1673ffffffffffffffffffffffffffffffffffffffff168152602001908152602001600020549050919050565b610a9a611328565b73ffffffffffffffffffffffffffffffffffffffff16610ab8610b1a565b73ffffffffffffffffffffffffffffffffffffffff1614610b0e576040517f08c379a0000000000000000000000000000000000000000000000000000000008152600401610b059061331a565b60405180910390fd5b610b18600061198e565b565b6000600860009054906101000a900473ffffffffffffffffffffffffffffffffffffffff16905090565b60006007600084815260200190815260200160002060000160008373ffffffffffffffffffffffffffffffffffffffff1673ffffffffffffffffffffffffffffffffffffffff16815260200190815260200160002060009054906101000a900460ff16905092915050565b606060018054610bbe9061369e565b80601f0160208091040260200160405190810160405280929190818152602001828054610bea9061369e565b8015610c375780601f10610c0c57610100808354040283529160200191610c37565b820191906000526020600020905b815481529060010190602001808311610c1a57829003601f168201915b5050505050905090565b610c49611328565b73ffffffffffffffffffffffffffffffffffffffff16610c67610b1a565b73ffffffffffffffffffffffffffffffffffffffff1614610cbd576040517f08c379a0000000000000000000000000000000000000000000000000000000008152600401610cb49061331a565b60405180910390fd5b610ce77f9f2df0fed2c77648de5860a4cc508cd0818c85b8b8a1ab4ceeef8d981c8956a6826117cb565b50565b6000801b81565b610d03610cfc611328565b8383611a54565b5050565b610d0f611328565b73ffffffffffffffffffffffffffffffffffffffff16610d2d610b1a565b73ffffffffffffffffffffffffffffffffffffffff1614610d83576040517f08c379a0000000000000000000000000000000000000000000000000000000008152600401610d7a9061331a565b60405180910390fd5b80600a60006101000a81548160ff02191690831515021790555050565b610db1610dab611328565b836113e9565b610df0576040517f08c379a0000000000000000000000000000000000000000000000000000000008152600401610de79061337a565b60405180910390fd5b610dfc84848484611bc1565b50505050565b6000600a60009054906101000a900460ff1680610e455750610e447f9f2df0fed2c77648de5860a4cc508cd0818c85b8b8a1ab4ceeef8d981c8956a683610b44565b5b9050919050565b6060610e57826112bc565b610e96576040517f08c379a0000000000000000000000000000000000000000000000000000000008152600401610e8d906132da565b60405180910390fd5b6000600660008481526020019081526020016000208054610eb69061369e565b80601f0160208091040260200160405190810160405280929190818152602001828054610ee29061369e565b8015610f2f5780601f10610f0457610100808354040283529160200191610f2f565b820191906000526020600020905b815481529060010190602001808311610f1257829003601f168201915b505050505090506000610f40611c1d565b9050600081511415610f56578192505050610f99565b600082511115610f8b578082604051602001610f73929190612ffd565b60405160208183030381529060405292505050610f99565b610f9484611c34565b925050505b919050565b600a60009054906101000a900460ff1681565b7f9f2df0fed2c77648de5860a4cc508cd0818c85b8b8a1ab4ceeef8d981c8956a681565b610fde8261083c565b610fef81610fea611328565b61172e565b610ff983836118ac565b505050565b6000600560008473ffffffffffffffffffffffffffffffffffffffff1673ffffffffffffffffffffffffffffffffffffffff16815260200190815260200160002060008373ffffffffffffffffffffffffffffffffffffffff1673ffffffffffffffffffffffffffffffffffffffff16815260200190815260200160002060009054906101000a900460ff16905092915050565b6000600a60009054906101000a900460ff16806110d557506110d47f9f2df0fed2c77648de5860a4cc508cd0818c85b8b8a1ab4ceeef8d981c8956a633610b44565b5b611114576040517f08c379a000000000000000000000000000000000000000000000000000000000815260040161110b906131fa565b60405180910390fd5b61111e6009611cdb565b600061112a6009611cf1565b90506111368482611cff565b6111408184611ed9565b8091505092915050565b611152611328565b73ffffffffffffffffffffffffffffffffffffffff16611170610b1a565b73ffffffffffffffffffffffffffffffffffffffff16146111c6576040517f08c379a00000000000000000000000000000000000000000000000000000000081526004016111bd9061331a565b60405180910390fd5b600073ffffffffffffffffffffffffffffffffffffffff168173ffffffffffffffffffffffffffffffffffffffff161415611236576040517f08c379a000000000000000000000000000000000000000000000000000000000815260040161122d9061315a565b60405180910390fd5b61123f8161198e565b50565b60007f7965db0b000000000000000000000000000000000000000000000000000000007bffffffffffffffffffffffffffffffffffffffffffffffffffffffff1916827bffffffffffffffffffffffffffffffffffffffffffffffffffffffff191614806112b557506112b482611f4d565b5b9050919050565b60008073ffffffffffffffffffffffffffffffffffffffff166002600084815260200190815260200160002060009054906101000a900473ffffffffffffffffffffffffffffffffffffffff1673ffffffffffffffffffffffffffffffffffffffff1614159050919050565b600033905090565b816004600083815260200190815260200160002060006101000a81548173ffffffffffffffffffffffffffffffffffffffff021916908373ffffffffffffffffffffffffffffffffffffffff160217905550808273ffffffffffffffffffffffffffffffffffffffff166113a383610928565b73ffffffffffffffffffffffffffffffffffffffff167f8c5be1e5ebec7d5bd14f71427d1e84f3dd0314c0f7b2291e5b200ac8c7c3b92560405160405180910390a45050565b60006113f4826112bc565b611433576040517f08c379a000000000000000000000000000000000000000000000000000000000815260040161142a9061321a565b60405180910390fd5b600061143e83610928565b90508073ffffffffffffffffffffffffffffffffffffffff168473ffffffffffffffffffffffffffffffffffffffff1614806114ad57508373ffffffffffffffffffffffffffffffffffffffff166114958461063f565b73ffffffffffffffffffffffffffffffffffffffff16145b806114be57506114bd8185610ffe565b5b91505092915050565b8273ffffffffffffffffffffffffffffffffffffffff166114e782610928565b73ffffffffffffffffffffffffffffffffffffffff161461153d576040517f08c379a00000000000000000000000000000000000000000000000000000000081526004016115349061317a565b60405180910390fd5b600073ffffffffffffffffffffffffffffffffffffffff168273ffffffffffffffffffffffffffffffffffffffff1614156115ad576040517f08c379a00000000000000000000000000000000000000000000000000000000081526004016115a4906131ba565b60405180910390fd5b6115b883838361202f565b6115c3600082611330565b6001600360008573ffffffffffffffffffffffffffffffffffffffff1673ffffffffffffffffffffffffffffffffffffffff16815260200190815260200160002060008282546116139190613580565b925050819055506001600360008473ffffffffffffffffffffffffffffffffffffffff1673ffffffffffffffffffffffffffffffffffffffff168152602001908152602001600020600082825461166a919061349f565b92505081905550816002600083815260200190815260200160002060006101000a81548173ffffffffffffffffffffffffffffffffffffffff021916908373ffffffffffffffffffffffffffffffffffffffff160217905550808273ffffffffffffffffffffffffffffffffffffffff168473ffffffffffffffffffffffffffffffffffffffff167fddf252ad1be2c89b69c2b068fc378daa952ba7f163c4a11628f55a4df523b3ef60405160405180910390a4611729838383612034565b505050565b6117388282610b44565b6117c75761175d8173ffffffffffffffffffffffffffffffffffffffff166014612039565b61176b8360001c6020612039565b60405160200161177c929190613021565b6040516020818303038152906040526040517f08c379a00000000000000000000000000000000000000000000000000000000081526004016117be91906130f8565b60405180910390fd5b5050565b6117d58282610b44565b6118a85760016007600084815260200190815260200160002060000160008373ffffffffffffffffffffffffffffffffffffffff1673ffffffffffffffffffffffffffffffffffffffff16815260200190815260200160002060006101000a81548160ff02191690831515021790555061184d611328565b73ffffffffffffffffffffffffffffffffffffffff168173ffffffffffffffffffffffffffffffffffffffff16837f2f8788117e7eff1d82e926ec794901d17c78024a50270940304540a733656f0d60405160405180910390a45b5050565b6118b68282610b44565b1561198a5760006007600084815260200190815260200160002060000160008373ffffffffffffffffffffffffffffffffffffffff1673ffffffffffffffffffffffffffffffffffffffff16815260200190815260200160002060006101000a81548160ff02191690831515021790555061192f611328565b73ffffffffffffffffffffffffffffffffffffffff168173ffffffffffffffffffffffffffffffffffffffff16837ff6391f5c32d9c69d2a47ea670b442974b53935d1edc7fd64eb21e047a839171b60405160405180910390a45b5050565b6000600860009054906101000a900473ffffffffffffffffffffffffffffffffffffffff16905081600860006101000a81548173ffffffffffffffffffffffffffffffffffffffff021916908373ffffffffffffffffffffffffffffffffffffffff1602179055508173ffffffffffffffffffffffffffffffffffffffff168173ffffffffffffffffffffffffffffffffffffffff167f8be0079c531659141344cd1fd0a4f28419497f9722a3daafe3b4186f6b6457e060405160405180910390a35050565b8173ffffffffffffffffffffffffffffffffffffffff168373ffffffffffffffffffffffffffffffffffffffff161415611ac3576040517f08c379a0000000000000000000000000000000000000000000000000000000008152600401611aba906131da565b60405180910390fd5b80600560008573ffffffffffffffffffffffffffffffffffffffff1673ffffffffffffffffffffffffffffffffffffffff16815260200190815260200160002060008473ffffffffffffffffffffffffffffffffffffffff1673ffffffffffffffffffffffffffffffffffffffff16815260200190815260200160002060006101000a81548160ff0219169083151502179055508173ffffffffffffffffffffffffffffffffffffffff168373ffffffffffffffffffffffffffffffffffffffff167f17307eab39ab6107e8899845ad3d59bd9653f200f220920489ca2b5937696c3183604051611bb491906130c2565b60405180910390a3505050565b611bcc8484846114c7565b611bd884848484612333565b611c17576040517f08c379a0000000000000000000000000000000000000000000000000000000008152600401611c0e9061313a565b60405180910390fd5b50505050565b606060405180602001604052806000815250905090565b6060611c3f826112bc565b611c7e576040517f08c379a0000000000000000000000000000000000000000000000000000000008152600401611c759061333a565b60405180910390fd5b6000611c88611c1d565b90506000815111611ca85760405180602001604052806000815250611cd3565b80611cb2846124ca565b604051602001611cc3929190612ffd565b6040516020818303038152906040525b915050919050565b6001816000016000828254019250508190555050565b600081600001549050919050565b600073ffffffffffffffffffffffffffffffffffffffff168273ffffffffffffffffffffffffffffffffffffffff161415611d6f576040517f08c379a0000000000000000000000000000000000000000000000000000000008152600401611d66906132ba565b60405180910390fd5b611d78816112bc565b15611db8576040517f08c379a0000000000000000000000000000000000000000000000000000000008152600401611daf9061319a565b60405180910390fd5b611dc46000838361202f565b6001600360008473ffffffffffffffffffffffffffffffffffffffff1673ffffffffffffffffffffffffffffffffffffffff1681526020019081526020016000206000828254611e14919061349f565b92505081905550816002600083815260200190815260200160002060006101000a81548173ffffffffffffffffffffffffffffffffffffffff021916908373ffffffffffffffffffffffffffffffffffffffff160217905550808273ffffffffffffffffffffffffffffffffffffffff16600073ffffffffffffffffffffffffffffffffffffffff167fddf252ad1be2c89b69c2b068fc378daa952ba7f163c4a11628f55a4df523b3ef60405160405180910390a4611ed560008383612034565b5050565b611ee2826112bc565b611f21576040517f08c379a0000000000000000000000000000000000000000000000000000000008152600401611f189061329a565b60405180910390fd5b80600660008481526020019081526020016000209080519060200190611f48929190612704565b505050565b60007f80ac58cd000000000000000000000000000000000000000000000000000000007bffffffffffffffffffffffffffffffffffffffffffffffffffffffff1916827bffffffffffffffffffffffffffffffffffffffffffffffffffffffff1916148061201857507f5b5e139f000000000000000000000000000000000000000000000000000000007bffffffffffffffffffffffffffffffffffffffffffffffffffffffff1916827bffffffffffffffffffffffffffffffffffffffffffffffffffffffff1916145b80612028575061202782612677565b5b9050919050565b505050565b505050565b60606000600283600261204c9190613526565b612056919061349f565b67ffffffffffffffff811115612095577f4e487b7100000000000000000000000000000000000000000000000000000000600052604160045260246000fd5b6040519080825280601f01601f1916602001820160405280156120c75781602001600182028036833780820191505090505b5090507f300000000000000000000000000000000000000000000000000000000000000081600081518110612125577f4e487b7100000000000000000000000000000000000000000000000000000000600052603260045260246000fd5b60200101907effffffffffffffffffffffffffffffffffffffffffffffffffffffffffffff1916908160001a9053507f7800000000000000000000000000000000000000000000000000000000000000816001815181106121af577f4e487b7100000000000000000000000000000000000000000000000000000000600052603260045260246000fd5b60200101907effffffffffffffffffffffffffffffffffffffffffffffffffffffffffffff1916908160001a905350600060018460026121ef9190613526565b6121f9919061349f565b90505b60018111156122e5577f3031323334353637383961626364656600000000000000000000000000000000600f861660108110612261577f4e487b7100000000000000000000000000000000000000000000000000000000600052603260045260246000fd5b1a60f81b82828151811061229e577f4e487b7100000000000000000000000000000000000000000000000000000000600052603260045260246000fd5b60200101907effffffffffffffffffffffffffffffffffffffffffffffffffffffffffffff1916908160001a905350600485901c9450806122de90613674565b90506121fc565b5060008414612329576040517f08c379a00000000000000000000000000000000000000000000000000000000081526004016123209061311a565b60405180910390fd5b8091505092915050565b60006123548473ffffffffffffffffffffffffffffffffffffffff166126e1565b156124bd578373ffffffffffffffffffffffffffffffffffffffff1663150b7a0261237d611328565b8786866040518563ffffffff1660e01b815260040161239f9493929190613076565b602060405180830381600087803b1580156123b957600080fd5b505af19250505080156123ea57506040513d601f19601f820116820180604052508101906123e79190612ba7565b60015b61246d573d806000811461241a576040519150601f19603f3d011682016040523d82523d6000602084013e61241f565b606091505b50600081511415612465576040517f08c379a000000000000000000000000000000000000000000000000000000000815260040161245c9061313a565b60405180910390fd5b805181602001fd5b63150b7a0260e01b7bffffffffffffffffffffffffffffffffffffffffffffffffffffffff1916817bffffffffffffffffffffffffffffffffffffffffffffffffffffffff1916149150506124c2565b600190505b949350505050565b60606000821415612512576040518060400160405280600181526020017f30000000000000000000000000000000000000000000000000000000000000008152509050612672565b600082905060005b6000821461254457808061252d90613701565b915050600a8261253d91906134f5565b915061251a565b60008167ffffffffffffffff811115612586577f4e487b7100000000000000000000000000000000000000000000000000000000600052604160045260246000fd5b6040519080825280601f01601f1916602001820160405280156125b85781602001600182028036833780820191505090505b5090505b6000851461266b576001826125d19190613580565b9150600a856125e0919061374a565b60306125ec919061349f565b60f81b818381518110612628577f4e487b7100000000000000000000000000000000000000000000000000000000600052603260045260246000fd5b60200101907effffffffffffffffffffffffffffffffffffffffffffffffffffffffffffff1916908160001a905350600a8561266491906134f5565b94506125bc565b8093505050505b919050565b60007f01ffc9a7000000000000000000000000000000000000000000000000000000007bffffffffffffffffffffffffffffffffffffffffffffffffffffffff1916827bffffffffffffffffffffffffffffffffffffffffffffffffffffffff1916149050919050565b6000808273ffffffffffffffffffffffffffffffffffffffff163b119050919050565b8280546127109061369e565b90600052602060002090601f0160209004810192826127325760008555612779565b82601f1061274b57805160ff1916838001178555612779565b82800160010185558215612779579182015b8281111561277857825182559160200191906001019061275d565b5b509050612786919061278a565b5090565b5b808211156127a357600081600090555060010161278b565b5090565b60006127ba6127b5846133fa565b6133d5565b9050828152602081018484840111156127d257600080fd5b6127dd848285613632565b509392505050565b60006127f86127f38461342b565b6133d5565b90508281526020810184848401111561281057600080fd5b61281b848285613632565b509392505050565b60008135905061283281613e31565b92915050565b60008135905061284781613e48565b92915050565b60008135905061285c81613e5f565b92915050565b60008135905061287181613e76565b92915050565b60008151905061288681613e76565b92915050565b600082601f83011261289d57600080fd5b81356128ad8482602086016127a7565b91505092915050565b600082601f8301126128c757600080fd5b81356128d78482602086016127e5565b91505092915050565b6000813590506128ef81613e8d565b92915050565b60006020828403121561290757600080fd5b600061291584828501612823565b91505092915050565b6000806040838503121561293157600080fd5b600061293f85828601612823565b925050602061295085828601612823565b9150509250929050565b60008060006060848603121561296f57600080fd5b600061297d86828701612823565b935050602061298e86828701612823565b925050604061299f868287016128e0565b9150509250925092565b600080600080608085870312156129bf57600080fd5b60006129cd87828801612823565b94505060206129de87828801612823565b93505060406129ef878288016128e0565b925050606085013567ffffffffffffffff811115612a0c57600080fd5b612a188782880161288c565b91505092959194509250565b60008060408385031215612a3757600080fd5b6000612a4585828601612823565b9250506020612a5685828601612838565b9150509250929050565b60008060408385031215612a7357600080fd5b6000612a8185828601612823565b925050602083013567ffffffffffffffff811115612a9e57600080fd5b612aaa858286016128b6565b9150509250929050565b60008060408385031215612ac757600080fd5b6000612ad585828601612823565b9250506020612ae6858286016128e0565b9150509250929050565b600060208284031215612b0257600080fd5b6000612b1084828501612838565b91505092915050565b600060208284031215612b2b57600080fd5b6000612b398482850161284d565b91505092915050565b60008060408385031215612b5557600080fd5b6000612b638582860161284d565b9250506020612b7485828601612823565b9150509250929050565b600060208284031215612b9057600080fd5b6000612b9e84828501612862565b91505092915050565b600060208284031215612bb957600080fd5b6000612bc784828501612877565b91505092915050565b600060208284031215612be257600080fd5b6000612bf0848285016128e0565b91505092915050565b612c02816135b4565b82525050565b612c11816135c6565b82525050565b612c20816135d2565b82525050565b6000612c318261345c565b612c3b8185613472565b9350612c4b818560208601613641565b612c5481613837565b840191505092915050565b6000612c6a82613467565b612c748185613483565b9350612c84818560208601613641565b612c8d81613837565b840191505092915050565b6000612ca382613467565b612cad8185613494565b9350612cbd818560208601613641565b80840191505092915050565b6000612cd6602083613483565b9150612ce182613848565b602082019050919050565b6000612cf9603283613483565b9150612d0482613871565b604082019050919050565b6000612d1c602683613483565b9150612d27826138c0565b604082019050919050565b6000612d3f602583613483565b9150612d4a8261390f565b604082019050919050565b6000612d62601c83613483565b9150612d6d8261395e565b602082019050919050565b6000612d85602483613483565b9150612d9082613987565b604082019050919050565b6000612da8601983613483565b9150612db3826139d6565b602082019050919050565b6000612dcb601683613483565b9150612dd6826139ff565b602082019050919050565b6000612dee602c83613483565b9150612df982613a28565b604082019050919050565b6000612e11603883613483565b9150612e1c82613a77565b604082019050919050565b6000612e34602a83613483565b9150612e3f82613ac6565b604082019050919050565b6000612e57602983613483565b9150612e6282613b15565b604082019050919050565b6000612e7a602e83613483565b9150612e8582613b64565b604082019050919050565b6000612e9d602083613483565b9150612ea882613bb3565b602082019050919050565b6000612ec0603183613483565b9150612ecb82613bdc565b604082019050919050565b6000612ee3602c83613483565b9150612eee82613c2b565b604082019050919050565b6000612f06602083613483565b9150612f1182613c7a565b602082019050919050565b6000612f29602f83613483565b9150612f3482613ca3565b604082019050919050565b6000612f4c602183613483565b9150612f5782613cf2565b604082019050919050565b6000612f6f603183613483565b9150612f7a82613d41565b604082019050919050565b6000612f92601783613494565b9150612f9d82613d90565b601782019050919050565b6000612fb5601183613494565b9150612fc082613db9565b601182019050919050565b6000612fd8602f83613483565b9150612fe382613de2565b604082019050919050565b612ff781613628565b82525050565b60006130098285612c98565b91506130158284612c98565b91508190509392505050565b600061302c82612f85565b91506130388285612c98565b915061304382612fa8565b915061304f8284612c98565b91508190509392505050565b60006020820190506130706000830184612bf9565b92915050565b600060808201905061308b6000830187612bf9565b6130986020830186612bf9565b6130a56040830185612fee565b81810360608301526130b78184612c26565b905095945050505050565b60006020820190506130d76000830184612c08565b92915050565b60006020820190506130f26000830184612c17565b92915050565b600060208201905081810360008301526131128184612c5f565b905092915050565b6000602082019050818103600083015261313381612cc9565b9050919050565b6000602082019050818103600083015261315381612cec565b9050919050565b6000602082019050818103600083015261317381612d0f565b9050919050565b6000602082019050818103600083015261319381612d32565b9050919050565b600060208201905081810360008301526131b381612d55565b9050919050565b600060208201905081810360008301526131d381612d78565b9050919050565b600060208201905081810360008301526131f381612d9b565b9050919050565b6000602082019050818103600083015261321381612dbe565b9050919050565b6000602082019050818103600083015261323381612de1565b9050919050565b6000602082019050818103600083015261325381612e04565b9050919050565b6000602082019050818103600083015261327381612e27565b9050919050565b6000602082019050818103600083015261329381612e4a565b9050919050565b600060208201905081810360008301526132b381612e6d565b9050919050565b600060208201905081810360008301526132d381612e90565b9050919050565b600060208201905081810360008301526132f381612eb3565b9050919050565b6000602082019050818103600083015261331381612ed6565b9050919050565b6000602082019050818103600083015261333381612ef9565b9050919050565b6000602082019050818103600083015261335381612f1c565b9050919050565b6000602082019050818103600083015261337381612f3f565b9050919050565b6000602082019050818103600083015261339381612f62565b9050919050565b600060208201905081810360008301526133b381612fcb565b9050919050565b60006020820190506133cf6000830184612fee565b92915050565b60006133df6133f0565b90506133eb82826136d0565b919050565b6000604051905090565b600067ffffffffffffffff82111561341557613414613808565b5b61341e82613837565b9050602081019050919050565b600067ffffffffffffffff82111561344657613445613808565b5b61344f82613837565b9050602081019050919050565b600081519050919050565b600081519050919050565b600082825260208201905092915050565b600082825260208201905092915050565b600081905092915050565b60006134aa82613628565b91506134b583613628565b9250827fffffffffffffffffffffffffffffffffffffffffffffffffffffffffffffffff038211156134ea576134e961377b565b5b828201905092915050565b600061350082613628565b915061350b83613628565b92508261351b5761351a6137aa565b5b828204905092915050565b600061353182613628565b915061353c83613628565b9250817fffffffffffffffffffffffffffffffffffffffffffffffffffffffffffffffff04831182151516156135755761357461377b565b5b828202905092915050565b600061358b82613628565b915061359683613628565b9250828210156135a9576135a861377b565b5b828203905092915050565b60006135bf82613608565b9050919050565b60008115159050919050565b6000819050919050565b60007fffffffff0000000000000000000000000000000000000000000000000000000082169050919050565b600073ffffffffffffffffffffffffffffffffffffffff82169050919050565b6000819050919050565b82818337600083830152505050565b60005b8381101561365f578082015181840152602081019050613644565b8381111561366e576000848401525b50505050565b600061367f82613628565b915060008214156136935761369261377b565b5b600182039050919050565b600060028204905060018216806136b657607f821691505b602082108114156136ca576136c96137d9565b5b50919050565b6136d982613837565b810181811067ffffffffffffffff821117156136f8576136f7613808565b5b80604052505050565b600061370c82613628565b91507fffffffffffffffffffffffffffffffffffffffffffffffffffffffffffffffff82141561373f5761373e61377b565b5b600182019050919050565b600061375582613628565b915061376083613628565b9250826137705761376f6137aa565b5b828206905092915050565b7f4e487b7100000000000000000000000000000000000000000000000000000000600052601160045260246000fd5b7f4e487b7100000000000000000000000000000000000000000000000000000000600052601260045260246000fd5b7f4e487b7100000000000000000000000000000000000000000000000000000000600052602260045260246000fd5b7f4e487b7100000000000000000000000000000000000000000000000000000000600052604160045260246000fd5b6000601f19601f8301169050919050565b7f537472696e67733a20686578206c656e67746820696e73756666696369656e74600082015250565b7f4552433732313a207472616e7366657220746f206e6f6e20455243373231526560008201527f63656976657220696d706c656d656e7465720000000000000000000000000000602082015250565b7f4f776e61626c653a206e6577206f776e657220697320746865207a65726f206160008201527f6464726573730000000000000000000000000000000000000000000000000000602082015250565b7f4552433732313a207472616e736665722066726f6d20696e636f72726563742060008201527f6f776e6572000000000000000000000000000000000000000000000000000000602082015250565b7f4552433732313a20746f6b656e20616c7265616479206d696e74656400000000600082015250565b7f4552433732313a207472616e7366657220746f20746865207a65726f2061646460008201527f7265737300000000000000000000000000000000000000000000000000000000602082015250565b7f4552433732313a20617070726f766520746f2063616c6c657200000000000000600082015250565b7f4d696e74696e6720697320726573747269637465642e00000000000000000000600082015250565b7f4552433732313a206f70657261746f7220717565727920666f72206e6f6e657860008201527f697374656e7420746f6b656e0000000000000000000000000000000000000000602082015250565b7f4552433732313a20617070726f76652063616c6c6572206973206e6f74206f7760008201527f6e6572206e6f7220617070726f76656420666f7220616c6c0000000000000000602082015250565b7f4552433732313a2062616c616e636520717565727920666f7220746865207a6560008201527f726f206164647265737300000000000000000000000000000000000000000000602082015250565b7f4552433732313a206f776e657220717565727920666f72206e6f6e657869737460008201527f656e7420746f6b656e0000000000000000000000000000000000000000000000602082015250565b7f45524337323155524953746f726167653a2055524920736574206f66206e6f6e60008201527f6578697374656e7420746f6b656e000000000000000000000000000000000000602082015250565b7f4552433732313a206d696e7420746f20746865207a65726f2061646472657373600082015250565b7f45524337323155524953746f726167653a2055524920717565727920666f722060008201527f6e6f6e6578697374656e7420746f6b656e000000000000000000000000000000602082015250565b7f4552433732313a20617070726f76656420717565727920666f72206e6f6e657860008201527f697374656e7420746f6b656e0000000000000000000000000000000000000000602082015250565b7f4f776e61626c653a2063616c6c6572206973206e6f7420746865206f776e6572600082015250565b7f4552433732314d657461646174613a2055524920717565727920666f72206e6f60008201527f6e6578697374656e7420746f6b656e0000000000000000000000000000000000602082015250565b7f4552433732313a20617070726f76616c20746f2063757272656e74206f776e6560008201527f7200000000000000000000000000000000000000000000000000000000000000602082015250565b7f4552433732313a207472616e736665722063616c6c6572206973206e6f74206f60008201527f776e6572206e6f7220617070726f766564000000000000000000000000000000602082015250565b7f416363657373436f6e74726f6c3a206163636f756e7420000000000000000000600082015250565b7f206973206d697373696e6720726f6c6520000000000000000000000000000000600082015250565b7f416363657373436f6e74726f6c3a2063616e206f6e6c792072656e6f756e636560008201527f20726f6c657320666f722073656c660000000000000000000000000000000000602082015250565b613e3a816135b4565b8114613e4557600080fd5b50565b613e51816135c6565b8114613e5c57600080fd5b50565b613e68816135d2565b8114613e7357600080fd5b50565b613e7f816135dc565b8114613e8a57600080fd5b50565b613e9681613628565b8114613ea157600080fd5b5056fea26469706673582212202564c01c5ec3b1f9b6f9635d37a90c0e27365fae0849a0810a769db6735a95e464736f6c63430008040033",
  "linkReferences": {},
  "deployedLinkReferences": {}
}